:020000040800F2
:100000000000022019120008E9110008EB11000895
:10001000ED110008EF110008F111000800000000C8
:10002000000000000000000000000000F3110008C4
:10003000F511000800000000F7110008F911000890
:1000400069120008691200086912000869120008A4
:100050006912000869120008691200086912000894
:100060006912000869120008691200086912000884
:100070006912000869120008691200086912000874
:100080006912000869120008691200086912000864
:100090006912000869120008691200086912000854
:1000A0006912000869120008691200086912000844
:1000B0006912000869120008691200086912000834
:1000C0006912000869120008691200086912000824
:1000D0006912000869120008691200086912000814
:1000E0006912000869120008691200086912000804
:1000F00069120008691200086912000869120008F4
:1001000069120008691200086912000869120008E3
:1001100069120008691200086912000869120008D3
:1001200069120008691200086912000869120008C3
:1001300069120008691200086912000869120008B3
:1001400069120008691200086912000869120008A3
:100150006912000869120008691200086912000893
:100160006912000869120008691200086912000883
:1001700069120008691200086912000800000000F6
:08018000691200086912000871
:1001880010B5054C237833B9044B13B10448AFF3C9
:1001980000800123237010BD0C0000200000000027
:1001A800C412000808B5034B1BB103490348AFF359
:1001B800008008BD0000000010000020C4120008E4
:1001C80053B94AB9002908BF00281CBF4FF0FF31B6
:1001D8004FF0FF3000F07AB9ADF1080C6DE904CEAC
:1001E80000F006F8DDF804E0DDE9022304B070470A
:1001F8002DE9F0478C460D460446089E002B51D148
:100208008A4217466DD9B2FA82FEBEF1000F0BD0B2
:10021800CEF1200C01FA0EF520FA0CFC02FA0EF7CA
:100228004CEA050C00FA0EF44FEA174A250CBCFB01
:10023800FAF81FFA87F90AFB18CC45EA0C4508FBBF
:1002480009F3AB420AD9ED1908F1FF3280F0238196
:10025800AB4240F22081A8F102083D44ED1AA4B255
:10026800B5FBFAF00AFB105544EA054400FB09F90E
:10027800A14509D9E41900F1FF3380F00A81A145AD
:1002880040F2078102383C44A4EB090440EA0840E4
:100298000021002E61D024FA0EF40023346073602C
:1002A800BDE8F0878B4207D9002E54D0002186E89C
:1002B80021000846BDE8F087B3FA83F1002940F031
:1002C8008E80AB4202D3824200F2FA80841A65EB38
:1002D80003050120AC46002E3FD086E81010BDE88B
:1002E800F08712B90127B7FBF2F7B7FA87FEBEF11C
:1002F800000F34D1EB1B3A0C1FFA87FC0121B3FB2A
:10030800F2F8250C02FB183345EA03450CFB08F309
:10031800AB4207D9ED1908F1FF3002D2AB4200F227
:10032800D1808046ED1AA3B2B5FBF2F002FB10555E
:1003380043EA05440CFB00FCA44507D9E41900F185
:10034800FF3302D2A44500F2B8801846A4EB0C048F
:1003580040EA08409DE731463046BDE8F087CEF1D7
:10036800200405FA0EF307FA0EF720FA04F83A0CFF
:1003780025FA04F448EA0308B4FBF2F14FEA1845F9
:1003880002FB11441FFA87FC45EA044501FB0CF304
:10039800AB4200FA0EF409D9ED1901F1FF3080F0F3
:1003A8008A80AB4240F2878002393D44EB1A1FFA3B
:1003B80088F5B3FBF2F002FB103345EA034500FB76
:1003C8000CF3AB4207D9ED1900F1FF386FD2AB42FD
:1003D8006DD902383D44EB1A40EA01418FE7C1F17B
:1003E800200722FA07F88B4005FA01F448EA0303CC
:1003F80020FA07FE4FEA134CFD404EEA040EB5FB07
:10040800FCF94FEA1E440CFB19551FFA83F844EA1D
:10041800054509FB08F4AC4202FA01F200FA01FAB8
:1004280008D9ED1809F1FF3043D2AC4241D9A9F1FE
:1004380002091D442D1B1FFA8EFEB5FBFCF00CFBB8
:1004480010554EEA054400FB08F8A04507D9E41802
:1004580000F1FF3529D2A04527D902381C4440EACB
:100468000940A4EB0804A0FB02894C45C6464D464A
:1004780015D312D056B1BAEB0E0364EB050404FA97
:1004880007F7CB401F43CC40376074600021BDE8BC
:10049800F0871846F8E69046E0E6C245EAD2B8EB9F
:1004A800020E69EB03050138E4E72846D7E7404622
:1004B80091E78146BEE7014678E702383C4445E7C4
:1004C800084608E7A8F102083D442BE7704700BF3B
:1004D80038B50E4A0E4B054618784FF47A73B3FBBD
:1004E800F0F31068B0FBF3F000F088F8044658B950
:1004F8000F2D09D8024629464FF0FF3000F04AF880
:10050800044B20461D6038BD012038BD080000207E
:10051800000000200400002008B50B4B1A6842F4C4
:1005280000721A601A6842F480621A601A6842F40B
:1005380080721A60032000F01BF80020FFF7C8FF44
:1005480000F0FAFD002008BD003C0240034A044BBD
:1005580011681B780B441360704700BF2800002007
:1005680000000020014B1868704700BF28000020D9
:10057800074AD36823F4E0631B041B0C43F0BF63F2
:10058800000243F4003300F4E0600343D360704793
:1005980000ED00E0174B30B5DC68C4F30224C4F169
:1005A8000703251D042B28BF0423062D4FF0010542
:1005B80005FA03F303F1FF338CBF033C0024194011
:1005C800A14005FA04F4013C2240002842EA010255
:1005D8004FEA0212ADBF00F1604000F00F00064B79
:1005E80000F56140B5BFD2B2D2B21A5480F80023E8
:1005F80030BD00BF00ED00E014ED00E00138B0F1BF
:10060800807F0AD2064B074A5860F02182F82310EF
:100618000020072298601A6070470120704700BFC9
:1006280010E000E000ED00E02DE9F04F85B00B6828
:10063800DFF8AC81684ADFF8AC910193002301240C
:10064800019D9C402540AC4240F0B0804C6824F0AD
:10065800100C0CF1FF36012E4FEA430E12D88768B2
:10066800032606FA0EF627EA0607CE6806FA0EF6FD
:100678003E4386604768C4F3001627EA05079E4094
:100688003E4346600326C76806FA0EF6F64307EAB5
:10069800060A8F6807FA0EF747EA0A07BCF1020F45
:1006A800C76016D14FEAD30A00EB8A0A03F0070B9A
:1006B800DAF820704FEA8B0B4FF00F0C0CFA0BFC9A
:1006C80027EA0C0C0F6907FA0BF747EA0C07CAF878
:1006D800207007683E4004F0030707FA0EFE4EEA52
:1006E80006060660E60061D54FF0000BCDF80CB0A9
:1006F800D8F84470394E47F48047C8F84470D8F8A1
:10070800447007F480470397039F23F0030707F11A
:10071800804707F59C3703F0030CD7F808A04FEA89
:100728008C0C4FF00F0E0EFA0CFEB0422AEA0E0E99
:1007380043D006F58066B04241D006F58066B042E7
:100748003FD006F58066B0423DD006F58066B042DF
:100758003BD048453BD006F50066B04239D006F597
:100768008066B04214BF0826072606FA0CF646EA49
:100778000E06BE601668EF4314F4803F0CBF3E407F
:100788002E431660566814F4003F0CBF3E402E43BB
:100798005660966814F4801F0CBF3E402E43966046
:1007A800D668A40254BF3E402E43D6600133102BB6
:1007B8007FF445AF05B0BDE8F08F5E46D5E701266A
:1007C800D3E70226D1E70326CFE70426CDE705269F
:1007D800CBE70626C9E700BF003C01400000024005
:1007E80000380240001402402DE9F843089E0446F0
:1007F80090461F46C1F307498DB22368B9F1010F2E
:100808000CBF5B699B6935EA03030CBF0123002316
:10081800434502D00020BDE8F8837B1CEDD0FFF7EC
:10082800A1FE801B874201D3002FE6D1002320229E
:10083800236384F83D2084F83E30226C84F83C30F1
:1008480042F0200222640120BDE8F88370B5044616
:1008580008B9012070BD90F83D3003F0FF021BB9C4
:1008680080F83C2000F084FC242384F83D30236881
:100878001A6822F001021A601A6842F400421A60EB
:100888001A6822F400421A6000F0ACFB6568414B1C
:100898009D424DD8404B9842DBD922683F49536866
:1008A800B0FBF1F123F03F030B435360136A23F0CD
:1008B8003F03013119431162D169364B21F44F418D
:1008C8009D4221F0FF0100F1FF3048D86D00B0FBD8
:1008D800F5F00130C0F30B03042B38BF04230B439E
:1008E800D3611168206AE36921F0C00103430B4317
:1008F80013609168E068236921F40341034321F000
:10090800FF010B439360D168A069636921F0FF017F
:1009180003430B43D360136843F0010313600020C3
:100928002023206484F83D30206384F83E0070BDA5
:100938001B4B98428DD92268184E5368B0FBF6F6C7
:1009480023F03F0333435360136A4FF496717143A6
:1009580023F03F034FF47A76B1FBF6F1A9E7A368D9
:1009680053B905EB4503B0FBF3F0431CC3F30B038A
:100978006BB143F40043B2E719236B43B0FBF3F0C8
:10098800431CC3F30B0313B143F44043A7E701230C
:10099800A5E700BFA08601007F841E0040420F002B
:1009A800FF083D002DE9F04F044685B0984689467A
:1009B8009246FFF7D7FD94F83D30202B054603D02B
:1009C800022005B0BDE8F08F0090192301224C49A0
:1009D8002046FFF709FF0028F2D194F83C30012B9C
:1009E800EED0012384F83C302368DFF814B11A688C
:1009F800D2075EBF1A6842F001021A601A6822F430
:100A080000621A60242384F83D3000232364A3F590
:100A18008033E362012709F0FE092268136843F472
:100A2800807313604FF00111434600950022204661
:100A3800FFF7DAFE236838B11B68DB0502D54FF4EF
:100A4800007323640320BCE7C3F81090FFF78AFD06
:100A580023685A695B690546C2F34002C3F38023E1
:100A6800A02694F83D10A02901D002B9E3B123686B
:100A7800202684F83D605A6912F0020F1A6842F481
:100A880000721A6027D0002203925A6903929B6968
:100A98000393039B00951923012219492046FFF768
:100AA800A3FE98B101208CE7FFF75CFD401B804551
:100AB80002D3B8F1000F01D184F83D6023685A6968
:100AC8005B69C2F34002C3F38023CAE784F83D6040
:100AD80084F83C0075E76FF480625A6159460095C6
:100AE800192301222046FFF77FFE0028DAD10137BB
:100AF800574592D384F83D6084F83C00D2E700BFA4
:100B0800020010002DE9F341044608B901203FE036
:100B18000368DD0710D4236898075AD423681A0796
:100B280000F19C8023685B0700F1BA80A069002867
:100B380040F01B8100202BE0A44B9A6802F00C02C5
:100B4800042A07D09A6802F00C02082A0AD15B68C6
:100B5800590207D59D4B1B689A03DCD56368002BA7
:100B6800D9D1D3E76368994DB3F5803F13D12B688A
:100B780043F480332B60FFF7F5FC944D06462B6851
:100B88009B03C8D4FFF7EEFC801B6428F7D9032029
:100B980002B0BDE8F081B3F5A02F04D12B6843F46F
:100BA80080232B60E3E72A6822F480322A602A68CF
:100BB80022F480222A60002BDDD1FFF7D3FC064601
:100BC8002B689F03A7D5FFF7CDFC801B6428F7D9B6
:100BD800DDE77E4B9A6812F00C0F07D09A6802F096
:100BE8000C02082A11D15B685E020ED4774B1A6892
:100BF800950702D5E268012A88D11A68216922F08E
:100C0800F80242EAC1021A6088E7E268704BB2B1A2
:100C180001221A60FFF7A6FC6C4D06462B68980760
:100C280007D52B68226923F0F80343EAC2032B6037
:100C380074E7FFF797FC801B0228EFD9A7E71A6033
:100C4800FFF790FC614D06462B6899077FF566AF64
:100C5800FFF788FC801B0228F6D998E762695D4B8C
:100C68007AB101221A60FFF77DFC584D06466B6F7A
:100C78009F073FF557AFFFF775FC801B0228F6D991
:100C880085E71A60FFF76EFC504D06466B6F9807B4
:100C98007FF548AFFFF766FC801B0228F6D976E798
:100CA8004A4B1A6C12F0805228D101921A6C42F009
:100CB80080521A641B6C03F080530193019B012638
:100CC800454D2B68D9051BD5A368404D012B27D16D
:100CD8002B6F43F001032B67FFF744FC3B4D07469E
:100CE80041F288382B6F9B0739D5002E3FF41EAF91
:100CF800364A136C23F08053136417E70026DFE7A6
:100D08002B6843F480732B60FFF72CFC07462B6895
:100D1800DA05D9D4FFF726FCC01B0228F7D936E735
:100D2800052B04D12B6F43F004032B67D0E72A6F00
:100D380022F001022A672A6F22F004022A67002B98
:100D4800CAD1FFF70FFC41F2883807462B6F980786
:100D5800CBD5FFF707FCC01B4045F7D917E7FFF7CE
:100D680001FCC01B4045BDD911E7184DAB6803F025
:100D78000C03082B47D0194E00230228336035D1C5
:100D8800FFF7F0FB07462B68990129D4226AE3692B
:100D98001343626A43EA8213E26A43EA0263A26A7D
:100DA8000A4C5208013A43EA02436B60012333605C
:100DB800FFF7D8FB054623689A013FF5BBAEFFF75E
:100DC800D1FB401B0228F6D9E1E600BF00380240FB
:100DD80000004742800E47420070004060004742D2
:100DE800FFF7C0FBC01B0228CDD9D0E6FFF7BAFB3E
:100DF80004462B689B017FF59DAEFFF7B3FB001BF4
:100E08000228F6D9C3E601283FF4C2AEA868E36910
:100E180000F480029A427FF479AE226A00F03F0320
:100E280093427FF473AE626A47F6C07303409342FD
:100E38007FF46CAEA26A00F4403393427FF466AE4E
:100E4800E36A00F07060C01A18BF0120A0E600BF76
:100E5800134908B58B6803F00C03042B03D0082B47
:100E680003D0104808BD104808BD4A684B68496857
:100E780013F4800314BF0C480A48C1F3881118BF43
:100E8800002302F03F02A1FB0001FFF799F9044B90
:100E98005B68C3F3014301335B00B0FBF3F008BDAB
:100EA800003802400024F40000127A002DE9F041D5
:100EB8000D46044610B90120BDE8F081444B1A687C
:100EC80002F00F028A4229D321688F072ED4C8075F
:100ED80041D43F4B1A6802F00F02954267D322684B
:100EE80051076DD4130707D53A4A2169936823F44B
:100EF800604343EAC1039360FFF7AAFF354B364AC4
:100F08009B68C3F30313D35CD840344B1860344B4D
:100F18001868FFF7DDFA0020BDE8F081CAB21A7040
:100F28001B6803F00F039942C5D1CDE7294B11F097
:100F3800040F1EBF9A6842F4E0529A600E0742BF3F
:100F48009A6842F460429A609A68A06822F0F002B7
:100F580002439A60BBE762681E4B012A1DD11B68D9
:100F680013F4003FA7D01B4EB36823F003031343C9
:100F7800B360FFF7F7FA41F288380746B36862684A
:100F880003F00C03B3EB820FA3D0FFF7EBFAC01BFF
:100F98004045F3D90320BDE8F081911E01291B6863
:100FA80002D813F0007FDDE713F0020FDAE7EAB2A8
:100FB8001A701B6803F00F039D427FF47CAF8EE725
:100FC8000449E0688B6823F4E05303438B6089E7A6
:100FD800003C024000380240DC12000808000020F3
:100FE80004000020044B054A9B68C3F38223D35CAA
:100FF800034A1068D840704700380240EC120008D5
:101008000800002030B595B03022002108A800F073
:101018004DF90021142203A800F048F900241C4BC4
:1010280001941A6C42F080521A641B6C03F08053CE
:101038000193019B174B02941A6842F480421A608C
:101048001B680F9403F480430293029B01230B93C4
:1010580010230C9308231093A8230225119308A8A2
:101068000423139308950E951295FFF74BFD0F2354
:1010780003934FF4A053069305214FF4805303A81C
:10108800049505940793FFF711FF15B030BD00BF15
:1010980000380240007000401FB50025FFF73CFAF9
:1010A800FFF7B0FF1F4B01951A6B1F4C42F08002EF
:1010B8001A631A6B02F080020192019A02951A6B68
:1010C80042F001021A631A6B02F001020292029ABC
:1010D80003951A6B42F002021A631B6B134AA56050
:1010E80003F002030393039B114BE56084E80C00B3
:1010F80020464FF4804323616561A561E56125625F
:10110800FFF7A4FB0B4B1D701D460A23012229780B
:101118002046FFF747FC18B12B7801332B70F4E712
:10112800FEE700BF003802402C00002000540040B9
:10113800801A06008000002082B00C4B002100912C
:101148005A6C42F480425A645A6C02F4804200920B
:10115800009A01911A6C42F080521A641B6C03F0D9
:1011680080530193019B02B0704700BF00380240D2
:1011780030B5044689B01422002103A800F096F87F
:101188002268144B9A4223D1134C14480025019528
:10119800236B43F002032363236B03F002030193E1
:1011A800019BC02303931223049301230593032374
:1011B800069303A904230793FFF736FA0295236CD5
:1011C80043F400132364236C03F400130293029B7B
:1011D80009B030BD0054004000380240000402400D
:1011E8007047FEE7FEE7FEE7FEE770477047704787
:1011F800FFF7ACB9054BD3F8882042F47002C3F866
:1012080088204FF000629A60704700BF00ED00E050
:10121800DFF834D0002103E00C4B5B584350043115
:101228000B480C4B42189A42F6D30B4A02E00023B3
:1012380042F8043B094B9A42F9D3FFF7DBFF00F071
:1012480011F8FFF729FF7047000002200413000877
:10125800000000200C0000200C000020840000206A
:10126800FEE7000070B50D4E0D4CA41BA410002520
:10127800A54209D10B4E0C4C00F020F8A41BA41079
:101288000025A54205D170BD56F82530984701358F
:10129800EEE756F8253098470135F2E7FC120008CA
:1012A800FC120008FC120008001300080244034660
:1012B800934200D1704703F8011BF9E7F8B500BF66
:1012C800F8BC08BC9E467047F8B500BFF8BC08BC1F
:0412D8009E46704777
:1012DC0000000000000000000102030406070809DA
:0812EC000000000001020304F0
:0812F40004EFFF7F0100000080
:0412FC00AD01000838
:041300008901000857
:0C13040001000000100000000024F400B4
:0400000508001219C4
:00000001FF
